{
  "transactions": [
    {
      "hash": "0x8777acb567471cb827851a3cee2fe9fd5933c298d7a4c2f6dc500140cb2da43a",
      "transactionType": "CALL",
      "contractName": "EigenDarkHook",
      "contractAddress": "0x12982838e8cd12e8d8d4dee9a4de6ac8b7164ac0",
      "function": "setAttestor(address,bool)",
      "arguments": [
        "0xcDd396e2587cdcc68444c052F07c308d4112D2C7",
        "false"
      ],
      "transaction": {
        "from": "0x4b992f2fbf714c0fcbb23bac5130ace48cad00cd",
        "to": "0x12982838e8cd12e8d8d4dee9a4de6ac8b7164ac0",
        "gas": "0x9785",
        "value": "0x0",
        "input": "0x41724dd0000000000000000000000000cdd396e2587cdcc68444c052f07c308d4112d2c70000000000000000000000000000000000000000000000000000000000000000",
        "nonce": "0x51",
        "chainId": "0xaa36a7"
      },
      "additionalContracts": [],
      "isFixedGasLimit": false
    },
    {
      "hash": "0x32856d32e18db85b11d9c3b63629036727c614e89ee189828c5f4029b3122845",
      "transactionType": "CALL",
      "contractName": "EigenDarkHook",
      "contractAddress": "0x12982838e8cd12e8d8d4dee9a4de6ac8b7164ac0",
      "function": "setAttestor(address,bool)",
      "arguments": [
        "0x266D178014dA4dF023a0104CD282C8c0f67a84Cc",
        "true"
      ],
      "transaction": {
        "from": "0x4b992f2fbf714c0fcbb23bac5130ace48cad00cd",
        "to": "0x12982838e8cd12e8d8d4dee9a4de6ac8b7164ac0",
        "gas": "0x114b3",
        "value": "0x0",
        "input": "0x41724dd0000000000000000000000000266d178014da4df023a0104cd282c8c0f67a84cc0000000000000000000000000000000000000000000000000000000000000001",
        "nonce": "0x52",
        "chainId": "0xaa36a7"
      },
      "additionalContracts": [],
      "isFixedGasLimit": false
    },
    {
      "hash": "0xc353bd68f06dd3bc7edf65ca8a239eb40f23a367b88bb344dd0111bf748b01c0",
      "transactionType": "CALL",
      "contractName": "EigenDarkHook",
      "contractAddress": "0x12982838e8cd12e8d8d4dee9a4de6ac8b7164ac0",
      "function": "configurePool((address,address,uint24,int24,address),(bool,bool,bytes32,uint128,uint128,uint64,uint64,uint128))",
      "arguments": [
        "(0x0000000000000000000000000000000000000000, 0x0000000000000000000000000000000000000001, 3000, 60, 0x12982838e8cd12e8d8d4dee9A4DE6Ac8B7164AC0)",
        "(true, false, 0x0000000000000000000000000000000000000000000000000000000000000000, 340282366920938463463374607431768211455, 340282366920938463463374607431768211455, 3600, 10000, 0)"
      ],
      "transaction": {
        "from": "0x4b992f2fbf714c0fcbb23bac5130ace48cad00cd",
        "to": "0x12982838e8cd12e8d8d4dee9a4de6ac8b7164ac0",
        "gas": "0x25fb8",
        "value": "0x0",
        "input": "0x30284e03000000000000000000000000000000000000000000000000000000000000000000000000000000000000000000000000000000000000000000000000000000010000000000000000000000000000000000000000000000000000000000000bb8000000000000000000000000000000000000000000000000000000000000003c00000000000000000000000012982838e8cd12e8d8d4dee9a4de6ac8b7164ac000000000000000000000000000000000000000000000000000000000000000010000000000000000000000000000000000000000000000000000000000000000000000000000000000000000000000000000000000000000000000000000000000000000000000000000000000000000ffffffffffffffffffffffffffffffff00000000000000000000000000000000ffffffffffffffffffffffffffffffff0000000000000000000000000000000000000000000000000000000000000e1000000000000000000000000000000000000000000000000000000000000027100000000000000000000000000000000000000000000000000000000000000000",
        "nonce": "0x53",
        "chainId": "0xaa36a7"
      },
      "additionalContracts": [],
      "isFixedGasLimit": false
    }
  ],
  "receipts": [
    {
      "status": "0x1",
      "cumulativeGasUsed": "0x3d274b",
      "logs": [
        {
          "address": "0x12982838e8cd12e8d8d4dee9a4de6ac8b7164ac0",
          "topics": [
            "0x93b8543bdf0aade4f1b01f7bc7eccaa0d387724a3b85d45b5edb4c03bd8824b5",
            "0x000000000000000000000000cdd396e2587cdcc68444c052f07c308d4112d2c7"
          ],
          "data": "0x0000000000000000000000000000000000000000000000000000000000000000",
          "blockHash": "0x729552f36288648ae0fc4edf1c5f85791d42391f41b4a33e00a67012713adcb1",
          "blockNumber": "0x9478e8",
          "blockTimestamp": "0x692ab490",
          "transactionHash": "0x8777acb567471cb827851a3cee2fe9fd5933c298d7a4c2f6dc500140cb2da43a",
          "transactionIndex": "0x24",
          "logIndex": "0x42",
          "removed": false
        }
      ],
      "logsBloom": "0x00000000000000000000000000000000000000000000000000000000000000000000000000000000000000000000000000000000000000000002000000000000000002000000000000000000000000000000000000000000000000000000000000000000000010000000000000000000000000000000040000000000000000000000000000000000000040000000000000000000000000080000000000000000000008000000000000000000000000000000000000000000000000000000000000000000000000000000000000000000000008000040000000000000000000000000000000000000000000000000000000000000000000000000000000000000",
      "type": "0x2",
      "transactionHash": "0x8777acb567471cb827851a3cee2fe9fd5933c298d7a4c2f6dc500140cb2da43a",
      "transactionIndex": "0x24",
      "blockHash": "0x729552f36288648ae0fc4edf1c5f85791d42391f41b4a33e00a67012713adcb1",
      "blockNumber": "0x9478e8",
      "gasUsed": "0x679b",
      "effectiveGasPrice": "0xfa910",
      "from": "0x4b992f2fbf714c0fcbb23bac5130ace48cad00cd",
      "to": "0x12982838e8cd12e8d8d4dee9a4de6ac8b7164ac0",
      "contractAddress": null
    },
    {
      "status": "0x1",
      "cumulativeGasUsed": "0x3de47e",
      "logs": [
        {
          "address": "0x12982838e8cd12e8d8d4dee9a4de6ac8b7164ac0",
          "topics": [
            "0x93b8543bdf0aade4f1b01f7bc7eccaa0d387724a3b85d45b5edb4c03bd8824b5",
            "0x000000000000000000000000266d178014da4df023a0104cd282c8c0f67a84cc"
          ],
          "data": "0x0000000000000000000000000000000000000000000000000000000000000001",
          "blockHash": "0x729552f36288648ae0fc4edf1c5f85791d42391f41b4a33e00a67012713adcb1",
          "blockNumber": "0x9478e8",
          "blockTimestamp": "0x692ab490",
          "transactionHash": "0x32856d32e18db85b11d9c3b63629036727c614e89ee189828c5f4029b3122845",
          "transactionIndex": "0x25",
          "logIndex": "0x43",
          "removed": false
        }
      ],
      "logsBloom": "0x00000000000000000000000000000000000000000000000000000000000000000000000000000000000000000000000000000000000000000002000000000000000000000000000000000000000000000000000800000000000000000000000000000000000010000000000000000000000000000000000000000000000000000000000000000000000040000000000000000000000000080000000000000000000008000000000000000000000000000000000000000000000000020000000000000000000000004000000000000000000008000000000000000000000000000000000000000000000000000000000000000000000000000000000000000000",
      "type": "0x2",
      "transactionHash": "0x32856d32e18db85b11d9c3b63629036727c614e89ee189828c5f4029b3122845",
      "transactionIndex": "0x25",
      "blockHash": "0x729552f36288648ae0fc4edf1c5f85791d42391f41b4a33e00a67012713adcb1",
      "blockNumber": "0x9478e8",
      "gasUsed": "0xbd33",
      "effectiveGasPrice": "0xfa910",
      "from": "0x4b992f2fbf714c0fcbb23bac5130ace48cad00cd",
      "to": "0x12982838e8cd12e8d8d4dee9a4de6ac8b7164ac0",
      "contractAddress": null
    },
    {
      "status": "0x1",
      "cumulativeGasUsed": "0x3f8407",
      "logs": [
        {
          "address": "0x12982838e8cd12e8d8d4dee9a4de6ac8b7164ac0",
          "topics": [
            "0x28706ea9238953dede7990a9447007def16e9ebac7395fcb7c07944e972be1c8",
            "0x7dcfa2e17ff33824b9a3c78f2e07c5c64c9ca2a9e986a989915b2411ccd0d0b5"
          ],
          "data": "0x00000000000000000000000000000000000000000000000000000000000000010000000000000000000000000000000000000000000000000000000000000000000000000000000000000000000000000000000000000000000000000000000000000000000000000000000000000000ffffffffffffffffffffffffffffffff00000000000000000000000000000000ffffffffffffffffffffffffffffffff0000000000000000000000000000000000000000000000000000000000000e1000000000000000000000000000000000000000000000000000000000000027100000000000000000000000000000000000000000000000000000000000000000",
          "blockHash": "0x729552f36288648ae0fc4edf1c5f85791d42391f41b4a33e00a67012713adcb1",
          "blockNumber": "0x9478e8",
          "blockTimestamp": "0x692ab490",
          "transactionHash": "0xc353bd68f06dd3bc7edf65ca8a239eb40f23a367b88bb344dd0111bf748b01c0",
          "transactionIndex": "0x26",
          "logIndex": "0x44",
          "removed": false
        }
      ],
      "logsBloom": "0x00000000000000000000000000000000000000000000000000000000000000000000000000000000000000000000000000000000000000000002000000000000000040000000000000000000000000000000000000000000000000000000000000000000000010000000000000000000000000001000000100000000000000000000080000000000000040000000000000000000000000000000000000000000000000000000000000000000000000000000000000000000000000000000000000000000000000000000000100000000000000000000000000000000000000000000001000000000000000000000000000000000000000000000000000000000",
      "type": "0x2",
      "transactionHash": "0xc353bd68f06dd3bc7edf65ca8a239eb40f23a367b88bb344dd0111bf748b01c0",
      "transactionIndex": "0x26",
      "blockHash": "0x729552f36288648ae0fc4edf1c5f85791d42391f41b4a33e00a67012713adcb1",
      "blockNumber": "0x9478e8",
      "gasUsed": "0x19f89",
      "effectiveGasPrice": "0xfa910",
      "from": "0x4b992f2fbf714c0fcbb23bac5130ace48cad00cd",
      "to": "0x12982838e8cd12e8d8d4dee9a4de6ac8b7164ac0",
      "contractAddress": null
    }
  ],
  "libraries": [],
  "pending": [],
  "returns": {},
  "timestamp": 1764406416074,
  "chain": 11155111,
  "commit": "bec3bd8"
}