{
  "transactions": [
    {
      "hash": "0x548cda31d82f8be90b045581a3c50216cc5a3e47be070fd3fc95bba90fbee037",
      "transactionType": "CALL",
      "contractName": null,
      "contractAddress": "0x12982838e8cd12e8d8d4dee9a4de6ac8b7164ac0",
      "function": "setAttestor(address,bool)",
      "arguments": [
        "0x266D178014dA4dF023a0104CD282C8c0f67a84Cc",
        "true"
      ],
      "transaction": {
        "from": "0x4b992f2fbf714c0fcbb23bac5130ace48cad00cd",
        "to": "0x12982838e8cd12e8d8d4dee9a4de6ac8b7164ac0",
        "gas": "0x99f5",
        "value": "0x0",
        "input": "0x41724dd0000000000000000000000000266d178014da4df023a0104cd282c8c0f67a84cc0000000000000000000000000000000000000000000000000000000000000001",
        "nonce": "0x58",
        "chainId": "0xaa36a7"
      },
      "additionalContracts": [],
      "isFixedGasLimit": false
    },
    {
      "hash": "0xfb69ec88a71ce70d2132eca4043fdad9301849eeb2405184a40fedf34b81ccb8",
      "transactionType": "CALL",
      "contractName": null,
      "contractAddress": "0xcee7afa935b01854d097c1f0ae6a8cb886671b70",
      "function": "setHook(address)",
      "arguments": [
        "0x12982838e8cd12e8d8d4dee9A4DE6Ac8B7164AC0"
      ],
      "transaction": {
        "from": "0x4b992f2fbf714c0fcbb23bac5130ace48cad00cd",
        "to": "0xcee7afa935b01854d097c1f0ae6a8cb886671b70",
        "gas": "0x9db0",
        "value": "0x0",
        "input": "0x3dfd387300000000000000000000000012982838e8cd12e8d8d4dee9a4de6ac8b7164ac0",
        "nonce": "0x59",
        "chainId": "0xaa36a7"
      },
      "additionalContracts": [],
      "isFixedGasLimit": false
    },
    {
      "hash": "0xe61bf33b716979623c0435f79ef6a55586a59357861e2971ddf6a63db4510676",
      "transactionType": "CALL",
      "contractName": null,
      "contractAddress": "0xcee7afa935b01854d097c1f0ae6a8cb886671b70",
      "function": "registerPool((address,address,uint24,int24,address))",
      "arguments": [
        "(0xC0936f7E87607955C617F6491CCe1Eb1bebc1FD3, 0xD384d3f622a2949219265E4467d3a8221e9f639C, 3000, 60, 0x12982838e8cd12e8d8d4dee9A4DE6Ac8B7164AC0)"
      ],
      "transaction": {
        "from": "0x4b992f2fbf714c0fcbb23bac5130ace48cad00cd",
        "to": "0xcee7afa935b01854d097c1f0ae6a8cb886671b70",
        "gas": "0x1a8dc",
        "value": "0x0",
        "input": "0xce07d308000000000000000000000000c0936f7e87607955c617f6491cce1eb1bebc1fd3000000000000000000000000d384d3f622a2949219265e4467d3a8221e9f639c0000000000000000000000000000000000000000000000000000000000000bb8000000000000000000000000000000000000000000000000000000000000003c00000000000000000000000012982838e8cd12e8d8d4dee9a4de6ac8b7164ac0",
        "nonce": "0x5a",
        "chainId": "0xaa36a7"
      },
      "additionalContracts": [],
      "isFixedGasLimit": false
    },
    {
      "hash": "0x34bf70870d796689119caa22bfec5bf6afd97ec002032172d291ff6f37df2edc",
      "transactionType": "CALL",
      "contractName": null,
      "contractAddress": "0x12982838e8cd12e8d8d4dee9a4de6ac8b7164ac0",
      "function": "configurePool((address,address,uint24,int24,address),(bool,bool,bytes32,uint128,uint128,uint64,uint64,uint128))",
      "arguments": [
        "(0xC0936f7E87607955C617F6491CCe1Eb1bebc1FD3, 0xD384d3f622a2949219265E4467d3a8221e9f639C, 3000, 60, 0x12982838e8cd12e8d8d4dee9A4DE6Ac8B7164AC0)",
        "(true, false, 0x0000000000000000000000000000000000000000000000000000000000000000, 340282366920938463463374607431768211455, 340282366920938463463374607431768211455, 3600, 10000, 0)"
      ],
      "transaction": {
        "from": "0x4b992f2fbf714c0fcbb23bac5130ace48cad00cd",
        "to": "0x12982838e8cd12e8d8d4dee9a4de6ac8b7164ac0",
        "gas": "0x2407a",
        "value": "0x0",
        "input": "0x30284e03000000000000000000000000c0936f7e87607955c617f6491cce1eb1bebc1fd3000000000000000000000000d384d3f622a2949219265e4467d3a8221e9f639c0000000000000000000000000000000000000000000000000000000000000bb8000000000000000000000000000000000000000000000000000000000000003c00000000000000000000000012982838e8cd12e8d8d4dee9a4de6ac8b7164ac000000000000000000000000000000000000000000000000000000000000000010000000000000000000000000000000000000000000000000000000000000000000000000000000000000000000000000000000000000000000000000000000000000000000000000000000000000000ffffffffffffffffffffffffffffffff00000000000000000000000000000000ffffffffffffffffffffffffffffffff0000000000000000000000000000000000000000000000000000000000000e1000000000000000000000000000000000000000000000000000000000000027100000000000000000000000000000000000000000000000000000000000000000",
        "nonce": "0x5b",
        "chainId": "0xaa36a7"
      },
      "additionalContracts": [],
      "isFixedGasLimit": false
    }
  ],
  "receipts": [
    {
      "status": "0x1",
      "cumulativeGasUsed": "0x5cb307",
      "logs": [
        {
          "address": "0x12982838e8cd12e8d8d4dee9a4de6ac8b7164ac0",
          "topics": [
            "0x93b8543bdf0aade4f1b01f7bc7eccaa0d387724a3b85d45b5edb4c03bd8824b5",
            "0x000000000000000000000000266d178014da4df023a0104cd282c8c0f67a84cc"
          ],
          "data": "0x0000000000000000000000000000000000000000000000000000000000000001",
          "blockHash": "0x2eb25a255aa5464c021d60f3ac19b7cb31be015ee88f2998b9a79ad1992530f4",
          "blockNumber": "0x94bffb",
          "blockTimestamp": "0x692e0b60",
          "transactionHash": "0x548cda31d82f8be90b045581a3c50216cc5a3e47be070fd3fc95bba90fbee037",
          "transactionIndex": "0x2a",
          "logIndex": "0x49",
          "removed": false
        }
      ],
      "logsBloom": "0x00000000000000000000000000000000000000000000000000000000000000000000000000000000000000000000000000000000000000000002000000000000000000000000000000000000000000000000000800000000000000000000000000000000000010000000000000000000000000000000000000000000000000000000000000000000000040000000000000000000000000080000000000000000000008000000000000000000000000000000000000000000000000020000000000000000000000004000000000000000000008000000000000000000000000000000000000000000000000000000000000000000000000000000000000000000",
      "type": "0x2",
      "transactionHash": "0x548cda31d82f8be90b045581a3c50216cc5a3e47be070fd3fc95bba90fbee037",
      "transactionIndex": "0x2a",
      "blockHash": "0x2eb25a255aa5464c021d60f3ac19b7cb31be015ee88f2998b9a79ad1992530f4",
      "blockNumber": "0x94bffb",
      "gasUsed": "0x6f77",
      "effectiveGasPrice": "0xf424a",
      "from": "0x4b992f2fbf714c0fcbb23bac5130ace48cad00cd",
      "to": "0x12982838e8cd12e8d8d4dee9a4de6ac8b7164ac0",
      "contractAddress": null
    },
    {
      "status": "0x1",
      "cumulativeGasUsed": "0x5d1eda",
      "logs": [
        {
          "address": "0xcee7afa935b01854d097c1f0ae6a8cb886671b70",
          "topics": [
            "0xe816c20840d998c8612f9b624b91687a80510eeb293cb09f7637379f6d73342d",
            "0x00000000000000000000000012982838e8cd12e8d8d4dee9a4de6ac8b7164ac0"
          ],
          "data": "0x",
          "blockHash": "0x2eb25a255aa5464c021d60f3ac19b7cb31be015ee88f2998b9a79ad1992530f4",
          "blockNumber": "0x94bffb",
          "blockTimestamp": "0x692e0b60",
          "transactionHash": "0xfb69ec88a71ce70d2132eca4043fdad9301849eeb2405184a40fedf34b81ccb8",
          "transactionIndex": "0x2b",
          "logIndex": "0x4a",
          "removed": false
        }
      ],
      "logsBloom": "0x00000000000000000000000020000000000000000000000000000000000000000000000000000000000000000000000000000000000000000000000000000000000000000000000000000000000002000000000000400000000000000000000000200000000000000000000000000000800000000000000000000000000000000000000000000000000000000000000000000000000000000000001000002000000000000000000000000000000000000000000000400000000000000000000400000000000000000000000000000000000000000000000000000000000000000000000000000000000000000000000000000000000000000000000000000000",
      "type": "0x2",
      "transactionHash": "0xfb69ec88a71ce70d2132eca4043fdad9301849eeb2405184a40fedf34b81ccb8",
      "transactionIndex": "0x2b",
      "blockHash": "0x2eb25a255aa5464c021d60f3ac19b7cb31be015ee88f2998b9a79ad1992530f4",
      "blockNumber": "0x94bffb",
      "gasUsed": "0x6bd3",
      "effectiveGasPrice": "0xf424a",
      "from": "0x4b992f2fbf714c0fcbb23bac5130ace48cad00cd",
      "to": "0xcee7afa935b01854d097c1f0ae6a8cb886671b70",
      "contractAddress": null
    },
    {
      "status": "0x1",
      "cumulativeGasUsed": "0x5e415b",
      "logs": [
        {
          "address": "0xcee7afa935b01854d097c1f0ae6a8cb886671b70",
          "topics": [
            "0xfafdbdd88ac30f0aa936e576be61816ea751908540523fa81b80c4a406ad7bec",
            "0xc380a8cd834eb43733fc60ca79ca157551a90f0218742f0f40554c6294d76a8f"
          ],
          "data": "0x000000000000000000000000c0936f7e87607955c617f6491cce1eb1bebc1fd3000000000000000000000000d384d3f622a2949219265e4467d3a8221e9f639c",
          "blockHash": "0x2eb25a255aa5464c021d60f3ac19b7cb31be015ee88f2998b9a79ad1992530f4",
          "blockNumber": "0x94bffb",
          "blockTimestamp": "0x692e0b60",
          "transactionHash": "0xe61bf33b716979623c0435f79ef6a55586a59357861e2971ddf6a63db4510676",
          "transactionIndex": "0x2c",
          "logIndex": "0x4b",
          "removed": false
        }
      ],
      "logsBloom": "0x00000000000000000010000000000000000000000000000000000000000000000000000000000000000000800000000002000000000000000000000000000000000000000000000000000000000002000000000000400000000000000000000000200000000000000000000000000004000000000000000000000000000000000000000000000000000000000000000000000000000000000000000000000000000000000000000000000000000000000000000000000000000000000000000004000000000000000000000000000000000000000000000000000000000000000000000000000000000000000800000000000000000000000000000000000000",
      "type": "0x2",
      "transactionHash": "0xe61bf33b716979623c0435f79ef6a55586a59357861e2971ddf6a63db4510676",
      "transactionIndex": "0x2c",
      "blockHash": "0x2eb25a255aa5464c021d60f3ac19b7cb31be015ee88f2998b9a79ad1992530f4",
      "blockNumber": "0x94bffb",
      "gasUsed": "0x12281",
      "effectiveGasPrice": "0xf424a",
      "from": "0x4b992f2fbf714c0fcbb23bac5130ace48cad00cd",
      "to": "0xcee7afa935b01854d097c1f0ae6a8cb886671b70",
      "contractAddress": null
    },
    {
      "status": "0x1",
      "cumulativeGasUsed": "0x5fe2b8",
      "logs": [
        {
          "address": "0x12982838e8cd12e8d8d4dee9a4de6ac8b7164ac0",
          "topics": [
            "0x28706ea9238953dede7990a9447007def16e9ebac7395fcb7c07944e972be1c8",
            "0xc380a8cd834eb43733fc60ca79ca157551a90f0218742f0f40554c6294d76a8f"
          ],
          "data": "0x00000000000000000000000000000000000000000000000000000000000000010000000000000000000000000000000000000000000000000000000000000000000000000000000000000000000000000000000000000000000000000000000000000000000000000000000000000000ffffffffffffffffffffffffffffffff00000000000000000000000000000000ffffffffffffffffffffffffffffffff0000000000000000000000000000000000000000000000000000000000000e1000000000000000000000000000000000000000000000000000000000000027100000000000000000000000000000000000000000000000000000000000000000",
          "blockHash": "0x2eb25a255aa5464c021d60f3ac19b7cb31be015ee88f2998b9a79ad1992530f4",
          "blockNumber": "0x94bffb",
          "blockTimestamp": "0x692e0b60",
          "transactionHash": "0x34bf70870d796689119caa22bfec5bf6afd97ec002032172d291ff6f37df2edc",
          "transactionIndex": "0x2d",
          "logIndex": "0x4c",
          "removed": false
        }
      ],
      "logsBloom": "0x00000000000000000010000000000000000000000000000000000000000000000000000000000000000000800000000000000000000000000002000000000000000040000000000000000000000000000000000000000000000000000000000000000000000010000000000000000000000000000000000100000000000000000000080000000000000040000000000000000000000000000000000000000000000000000000000000000000000000000000000000000000000000000000000000000000000000000000000000000000000000000000000000000000000000000000000000000000000000000800000000000000000000000000000000000000",
      "type": "0x2",
      "transactionHash": "0x34bf70870d796689119caa22bfec5bf6afd97ec002032172d291ff6f37df2edc",
      "transactionIndex": "0x2d",
      "blockHash": "0x2eb25a255aa5464c021d60f3ac19b7cb31be015ee88f2998b9a79ad1992530f4",
      "blockNumber": "0x94bffb",
      "gasUsed": "0x1a15d",
      "effectiveGasPrice": "0xf424a",
      "from": "0x4b992f2fbf714c0fcbb23bac5130ace48cad00cd",
      "to": "0x12982838e8cd12e8d8d4dee9a4de6ac8b7164ac0",
      "contractAddress": null
    }
  ],
  "libraries": [],
  "pending": [],
  "returns": {},
  "timestamp": 1764625250144,
  "chain": 11155111,
  "commit": "1653e78"
}