{
  "transactions": [
    {
      "hash": "0x1b3f26dddded7201f69124a22e3e25b0e1f53cddececea2af0c36af008de55ba",
      "transactionType": "CALL",
      "contractName": "EigenDarkHook",
      "contractAddress": "0x12982838e8cd12e8d8d4dee9a4de6ac8b7164ac0",
      "function": "setAttestor(address,bool)",
      "arguments": [
        "0xcDd396e2587cdcc68444c052F07c308d4112D2C7",
        "true"
      ],
      "transaction": {
        "from": "0x4b992f2fbf714c0fcbb23bac5130ace48cad00cd",
        "to": "0x12982838e8cd12e8d8d4dee9a4de6ac8b7164ac0",
        "gas": "0x114b3",
        "value": "0x0",
        "input": "0x41724dd0000000000000000000000000cdd396e2587cdcc68444c052f07c308d4112d2c70000000000000000000000000000000000000000000000000000000000000001",
        "nonce": "0x4f",
        "chainId": "0xaa36a7"
      },
      "additionalContracts": [],
      "isFixedGasLimit": false
    },
    {
      "hash": "0x32301f97551aaeecdbde5190999fef727d42d71024dd3d9a0e783bb602361331",
      "transactionType": "CALL",
      "contractName": "EigenDarkVault",
      "contractAddress": "0xcee7afa935b01854d097c1f0ae6a8cb886671b70",
      "function": "setHook(address)",
      "arguments": [
        "0x12982838e8cd12e8d8d4dee9A4DE6Ac8B7164AC0"
      ],
      "transaction": {
        "from": "0x4b992f2fbf714c0fcbb23bac5130ace48cad00cd",
        "to": "0xcee7afa935b01854d097c1f0ae6a8cb886671b70",
        "gas": "0x1004c",
        "value": "0x0",
        "input": "0x3dfd387300000000000000000000000012982838e8cd12e8d8d4dee9a4de6ac8b7164ac0",
        "nonce": "0x50",
        "chainId": "0xaa36a7"
      },
      "additionalContracts": [],
      "isFixedGasLimit": false
    }
  ],
  "receipts": [
    {
      "status": "0x1",
      "cumulativeGasUsed": "0x5e3685",
      "logs": [
        {
          "address": "0x12982838e8cd12e8d8d4dee9a4de6ac8b7164ac0",
          "topics": [
            "0x93b8543bdf0aade4f1b01f7bc7eccaa0d387724a3b85d45b5edb4c03bd8824b5",
            "0x000000000000000000000000cdd396e2587cdcc68444c052f07c308d4112d2c7"
          ],
          "data": "0x0000000000000000000000000000000000000000000000000000000000000001",
          "blockHash": "0x1592718746cb80fd3c479a3a6853af5dfdd3fff3d3ebb06e8552174e864aa51e",
          "blockNumber": "0x94782e",
          "blockTimestamp": "0x692aabd8",
          "transactionHash": "0x1b3f26dddded7201f69124a22e3e25b0e1f53cddececea2af0c36af008de55ba",
          "transactionIndex": "0x32",
          "logIndex": "0x6e",
          "removed": false
        }
      ],
      "logsBloom": "0x00000000000000000000000000000000000000000000000000000000000000000000000000000000000000000000000000000000000000000002000000000000000002000000000000000000000000000000000000000000000000000000000000000000000010000000000000000000000000000000040000000000000000000000000000000000000040000000000000000000000000080000000000000000000008000000000000000000000000000000000000000000000000000000000000000000000000000000000000000000000008000040000000000000000000000000000000000000000000000000000000000000000000000000000000000000",
      "type": "0x2",
      "transactionHash": "0x1b3f26dddded7201f69124a22e3e25b0e1f53cddececea2af0c36af008de55ba",
      "transactionIndex": "0x32",
      "blockHash": "0x1592718746cb80fd3c479a3a6853af5dfdd3fff3d3ebb06e8552174e864aa51e",
      "blockNumber": "0x94782e",
      "gasUsed": "0xbd33",
      "effectiveGasPrice": "0xf4249",
      "from": "0x4b992f2fbf714c0fcbb23bac5130ace48cad00cd",
      "to": "0x12982838e8cd12e8d8d4dee9a4de6ac8b7164ac0",
      "contractAddress": null
    },
    {
      "status": "0x1",
      "cumulativeGasUsed": "0x5ef014",
      "logs": [
        {
          "address": "0xcee7afa935b01854d097c1f0ae6a8cb886671b70",
          "topics": [
            "0xe816c20840d998c8612f9b624b91687a80510eeb293cb09f7637379f6d73342d",
            "0x00000000000000000000000012982838e8cd12e8d8d4dee9a4de6ac8b7164ac0"
          ],
          "data": "0x",
          "blockHash": "0x1592718746cb80fd3c479a3a6853af5dfdd3fff3d3ebb06e8552174e864aa51e",
          "blockNumber": "0x94782e",
          "blockTimestamp": "0x692aabd8",
          "transactionHash": "0x32301f97551aaeecdbde5190999fef727d42d71024dd3d9a0e783bb602361331",
          "transactionIndex": "0x33",
          "logIndex": "0x6f",
          "removed": false
        }
      ],
      "logsBloom": "0x00000000000000000000000020000000000000000000000000000000000000000000000000000000000000000000000000000000000000000000000000000000000000000000000000000000000002000000000000400000000000000000000000200000000000000000000000000000800000000000000000000000000000000000000000000000000000000000000000000000000000000000001000002000000000000000000000000000000000000000000000400000000000000000000400000000000000000000000000000000000000000000000000000000000000000000000000000000000000000000000000000000000000000000000000000000",
      "type": "0x2",
      "transactionHash": "0x32301f97551aaeecdbde5190999fef727d42d71024dd3d9a0e783bb602361331",
      "transactionIndex": "0x33",
      "blockHash": "0x1592718746cb80fd3c479a3a6853af5dfdd3fff3d3ebb06e8552174e864aa51e",
      "blockNumber": "0x94782e",
      "gasUsed": "0xb98f",
      "effectiveGasPrice": "0xf4249",
      "from": "0x4b992f2fbf714c0fcbb23bac5130ace48cad00cd",
      "to": "0xcee7afa935b01854d097c1f0ae6a8cb886671b70",
      "contractAddress": null
    }
  ],
  "libraries": [],
  "pending": [],
  "returns": {},
  "timestamp": 1764404183965,
  "chain": 11155111,
  "commit": "1aca4a4"
}