{
  "transactions": [
    {
      "hash": "0x224f561dc29c3191a784d6e341d71f26ed6727d632ce43c2efce6e45c8b00429",
      "transactionType": "CALL",
      "contractName": "EigenDarkHook",
      "contractAddress": "0x12982838e8cd12e8d8d4dee9a4de6ac8b7164ac0",
      "function": "setAttestor(address,bool)",
      "arguments": [
        "0x266D178014dA4dF023a0104CD282C8c0f67a84Cc",
        "true"
      ],
      "transaction": {
        "from": "0x4b992f2fbf714c0fcbb23bac5130ace48cad00cd",
        "to": "0x12982838e8cd12e8d8d4dee9a4de6ac8b7164ac0",
        "gas": "0x99f5",
        "value": "0x0",
        "input": "0x41724dd0000000000000000000000000266d178014da4df023a0104cd282c8c0f67a84cc0000000000000000000000000000000000000000000000000000000000000001",
        "nonce": "0xd3",
        "chainId": "0xaa36a7"
      },
      "additionalContracts": [],
      "isFixedGasLimit": false
    },
    {
      "hash": "0xfd6c1e99dca1d5e9bd7fe6aeae823f0b3ea4fd5328e7b278512f3900a6a6745f",
      "transactionType": "CALL",
      "contractName": "EigenDarkVault",
      "contractAddress": "0xcee7afa935b01854d097c1f0ae6a8cb886671b70",
      "function": "setHook(address)",
      "arguments": [
        "0x12982838e8cd12e8d8d4dee9A4DE6Ac8B7164AC0"
      ],
      "transaction": {
        "from": "0x4b992f2fbf714c0fcbb23bac5130ace48cad00cd",
        "to": "0xcee7afa935b01854d097c1f0ae6a8cb886671b70",
        "gas": "0x9db0",
        "value": "0x0",
        "input": "0x3dfd387300000000000000000000000012982838e8cd12e8d8d4dee9a4de6ac8b7164ac0",
        "nonce": "0xd4",
        "chainId": "0xaa36a7"
      },
      "additionalContracts": [],
      "isFixedGasLimit": false
    },
    {
      "hash": "0xeeea8e9657c7d0a450504a115a59a75da853850e13b4ade8898dccc7000e91e9",
      "transactionType": "CALL",
      "contractName": "EigenDarkVault",
      "contractAddress": "0xcee7afa935b01854d097c1f0ae6a8cb886671b70",
      "function": "registerPool((address,address,uint24,int24,address))",
      "arguments": [
        "(0x6d6087d050d54BA570f59F010b72d0109276DA28, 0x6d6087d050d54BA570f59F010b72d0109276DA28, 3000, 60, 0x12982838e8cd12e8d8d4dee9A4DE6Ac8B7164AC0)"
      ],
      "transaction": {
        "from": "0x4b992f2fbf714c0fcbb23bac5130ace48cad00cd",
        "to": "0xcee7afa935b01854d097c1f0ae6a8cb886671b70",
        "gas": "0x1a8dc",
        "value": "0x0",
        "input": "0xce07d3080000000000000000000000006d6087d050d54ba570f59f010b72d0109276da280000000000000000000000006d6087d050d54ba570f59f010b72d0109276da280000000000000000000000000000000000000000000000000000000000000bb8000000000000000000000000000000000000000000000000000000000000003c00000000000000000000000012982838e8cd12e8d8d4dee9a4de6ac8b7164ac0",
        "nonce": "0xd5",
        "chainId": "0xaa36a7"
      },
      "additionalContracts": [],
      "isFixedGasLimit": false
    },
    {
      "hash": "0x7d648768e10e0c1db51a69fa8122ba0ebc3074100862889e49d112f9513cb118",
      "transactionType": "CALL",
      "contractName": "EigenDarkHook",
      "contractAddress": "0x12982838e8cd12e8d8d4dee9a4de6ac8b7164ac0",
      "function": "configurePool((address,address,uint24,int24,address),(bool,bool,bytes32,uint128,uint128,uint64,uint64,uint128))",
      "arguments": [
        "(0x6d6087d050d54BA570f59F010b72d0109276DA28, 0x6d6087d050d54BA570f59F010b72d0109276DA28, 3000, 60, 0x12982838e8cd12e8d8d4dee9A4DE6Ac8B7164AC0)",
        "(true, false, 0x0000000000000000000000000000000000000000000000000000000000000000, 340282366920938463463374607431768211455, 340282366920938463463374607431768211455, 3600, 10000, 0)"
      ],
      "transaction": {
        "from": "0x4b992f2fbf714c0fcbb23bac5130ace48cad00cd",
        "to": "0x12982838e8cd12e8d8d4dee9a4de6ac8b7164ac0",
        "gas": "0x2407a",
        "value": "0x0",
        "input": "0x30284e030000000000000000000000006d6087d050d54ba570f59f010b72d0109276da280000000000000000000000006d6087d050d54ba570f59f010b72d0109276da280000000000000000000000000000000000000000000000000000000000000bb8000000000000000000000000000000000000000000000000000000000000003c00000000000000000000000012982838e8cd12e8d8d4dee9a4de6ac8b7164ac000000000000000000000000000000000000000000000000000000000000000010000000000000000000000000000000000000000000000000000000000000000000000000000000000000000000000000000000000000000000000000000000000000000000000000000000000000000ffffffffffffffffffffffffffffffff00000000000000000000000000000000ffffffffffffffffffffffffffffffff0000000000000000000000000000000000000000000000000000000000000e1000000000000000000000000000000000000000000000000000000000000027100000000000000000000000000000000000000000000000000000000000000000",
        "nonce": "0xd6",
        "chainId": "0xaa36a7"
      },
      "additionalContracts": [],
      "isFixedGasLimit": false
    }
  ],
  "receipts": [
    {
      "status": "0x1",
      "cumulativeGasUsed": "0xcbce41",
      "logs": [
        {
          "address": "0x12982838e8cd12e8d8d4dee9a4de6ac8b7164ac0",
          "topics": [
            "0x93b8543bdf0aade4f1b01f7bc7eccaa0d387724a3b85d45b5edb4c03bd8824b5",
            "0x000000000000000000000000266d178014da4df023a0104cd282c8c0f67a84cc"
          ],
          "data": "0x0000000000000000000000000000000000000000000000000000000000000001",
          "blockHash": "0x57e764024208b67984290b29436484fb43f811f05fba287739dd373cba30cc89",
          "blockNumber": "0x95a611",
          "blockTimestamp": "0x6938ed88",
          "transactionHash": "0x224f561dc29c3191a784d6e341d71f26ed6727d632ce43c2efce6e45c8b00429",
          "transactionIndex": "0x49",
          "logIndex": "0xc5",
          "removed": false
        }
      ],
      "logsBloom": "0x00000000000000000000000000000000000000000000000000000000000000000000000000000000000000000000000000000000000000000002000000000000000000000000000000000000000000000000000800000000000000000000000000000000000010000000000000000000000000000000000000000000000000000000000000000000000040000000000000000000000000080000000000000000000008000000000000000000000000000000000000000000000000020000000000000000000000004000000000000000000008000000000000000000000000000000000000000000000000000000000000000000000000000000000000000000",
      "type": "0x2",
      "transactionHash": "0x224f561dc29c3191a784d6e341d71f26ed6727d632ce43c2efce6e45c8b00429",
      "transactionIndex": "0x49",
      "blockHash": "0x57e764024208b67984290b29436484fb43f811f05fba287739dd373cba30cc89",
      "blockNumber": "0x95a611",
      "gasUsed": "0x6f77",
      "effectiveGasPrice": "0xf4247",
      "from": "0x4b992f2fbf714c0fcbb23bac5130ace48cad00cd",
      "to": "0x12982838e8cd12e8d8d4dee9a4de6ac8b7164ac0",
      "contractAddress": null
    },
    {
      "status": "0x1",
      "cumulativeGasUsed": "0x768e10",
      "logs": [
        {
          "address": "0xcee7afa935b01854d097c1f0ae6a8cb886671b70",
          "topics": [
            "0xe816c20840d998c8612f9b624b91687a80510eeb293cb09f7637379f6d73342d",
            "0x00000000000000000000000012982838e8cd12e8d8d4dee9a4de6ac8b7164ac0"
          ],
          "data": "0x",
          "blockHash": "0xdd614b5074ac3ad6b500a66ec1759856953e1a805d9b4942838f360e6b8b7b4b",
          "blockNumber": "0x95a613",
          "blockTimestamp": "0x6938eda0",
          "transactionHash": "0xfd6c1e99dca1d5e9bd7fe6aeae823f0b3ea4fd5328e7b278512f3900a6a6745f",
          "transactionIndex": "0x3c",
          "logIndex": "0x96",
          "removed": false
        }
      ],
      "logsBloom": "0x00000000000000000000000020000000000000000000000000000000000000000000000000000000000000000000000000000000000000000000000000000000000000000000000000000000000002000000000000400000000000000000000000200000000000000000000000000000800000000000000000000000000000000000000000000000000000000000000000000000000000000000001000002000000000000000000000000000000000000000000000400000000000000000000400000000000000000000000000000000000000000000000000000000000000000000000000000000000000000000000000000000000000000000000000000000",
      "type": "0x2",
      "transactionHash": "0xfd6c1e99dca1d5e9bd7fe6aeae823f0b3ea4fd5328e7b278512f3900a6a6745f",
      "transactionIndex": "0x3c",
      "blockHash": "0xdd614b5074ac3ad6b500a66ec1759856953e1a805d9b4942838f360e6b8b7b4b",
      "blockNumber": "0x95a613",
      "gasUsed": "0x6bd3",
      "effectiveGasPrice": "0xf4247",
      "from": "0x4b992f2fbf714c0fcbb23bac5130ace48cad00cd",
      "to": "0xcee7afa935b01854d097c1f0ae6a8cb886671b70",
      "contractAddress": null
    },
    {
      "status": "0x1",
      "cumulativeGasUsed": "0x6a125b",
      "logs": [
        {
          "address": "0xcee7afa935b01854d097c1f0ae6a8cb886671b70",
          "topics": [
            "0xfafdbdd88ac30f0aa936e576be61816ea751908540523fa81b80c4a406ad7bec",
            "0x5a41e291b1c7245c91009ebb6fef59afc74327829912e071bf5feeb223076d68"
          ],
          "data": "0x0000000000000000000000006d6087d050d54ba570f59f010b72d0109276da280000000000000000000000006d6087d050d54ba570f59f010b72d0109276da28",
          "blockHash": "0xa1dd537c4a5c32107dcfc09553dbaac640d1aea5aa2766cf751183c2a12a43c6",
          "blockNumber": "0x95a618",
          "blockTimestamp": "0x6938eddc",
          "transactionHash": "0xeeea8e9657c7d0a450504a115a59a75da853850e13b4ade8898dccc7000e91e9",
          "transactionIndex": "0x29",
          "logIndex": "0x4d",
          "removed": false
        }
      ],
      "logsBloom": "0x00000000000000000000000000000000000000000000000000000000000000000000000000002000000000000000000002000000000000000000000000000000000000000000000000000000000002000000000000400000000000000000000000200000000000000000000000000004000000000000000000000000000000000000000000000000000000000000000000000000000000000000000000000000000000000000000000000000000400000000000000000000000000000000000004000000000000000000000000000000000000000000000000000000000000000000000000000000000000000000000100000000000000000000000000000000",
      "type": "0x2",
      "transactionHash": "0xeeea8e9657c7d0a450504a115a59a75da853850e13b4ade8898dccc7000e91e9",
      "transactionIndex": "0x29",
      "blockHash": "0xa1dd537c4a5c32107dcfc09553dbaac640d1aea5aa2766cf751183c2a12a43c6",
      "blockNumber": "0x95a618",
      "gasUsed": "0x12281",
      "effectiveGasPrice": "0xf4247",
      "from": "0x4b992f2fbf714c0fcbb23bac5130ace48cad00cd",
      "to": "0xcee7afa935b01854d097c1f0ae6a8cb886671b70",
      "contractAddress": null
    },
    {
      "status": "0x1",
      "cumulativeGasUsed": "0xc53bc5",
      "logs": [
        {
          "address": "0x12982838e8cd12e8d8d4dee9a4de6ac8b7164ac0",
          "topics": [
            "0x28706ea9238953dede7990a9447007def16e9ebac7395fcb7c07944e972be1c8",
            "0x5a41e291b1c7245c91009ebb6fef59afc74327829912e071bf5feeb223076d68"
          ],
          "data": "0x00000000000000000000000000000000000000000000000000000000000000010000000000000000000000000000000000000000000000000000000000000000000000000000000000000000000000000000000000000000000000000000000000000000000000000000000000000000ffffffffffffffffffffffffffffffff00000000000000000000000000000000ffffffffffffffffffffffffffffffff0000000000000000000000000000000000000000000000000000000000000e1000000000000000000000000000000000000000000000000000000000000027100000000000000000000000000000000000000000000000000000000000000000",
          "blockHash": "0x990858c707cc570952657d8284a7c0fde3f9acc7c892416908718896f3b55b23",
          "blockNumber": "0x95a61d",
          "blockTimestamp": "0x6938ee18",
          "transactionHash": "0x7d648768e10e0c1db51a69fa8122ba0ebc3074100862889e49d112f9513cb118",
          "transactionIndex": "0x2a",
          "logIndex": "0x78",
          "removed": false
        }
      ],
      "logsBloom": "0x00000000000000000000000000000000000000000000000000000000000000000000000000002000000000000000000000000000000000000002000000000000000040000000000000000000000000000000000000000000000000000000000000000000000010000000000000000000000000000000000100000000000000000000080000000000000040000000000000000000000000000000000000000000000000000000000000000000000400000000000000000000000000000000000000000000000000000000000000000000000000000000000000000000000000000000000000000000000000000000000100000000000000000000000000000000",
      "type": "0x2",
      "transactionHash": "0x7d648768e10e0c1db51a69fa8122ba0ebc3074100862889e49d112f9513cb118",
      "transactionIndex": "0x2a",
      "blockHash": "0x990858c707cc570952657d8284a7c0fde3f9acc7c892416908718896f3b55b23",
      "blockNumber": "0x95a61d",
      "gasUsed": "0x1a15d",
      "effectiveGasPrice": "0xf4247",
      "from": "0x4b992f2fbf714c0fcbb23bac5130ace48cad00cd",
      "to": "0x12982838e8cd12e8d8d4dee9a4de6ac8b7164ac0",
      "contractAddress": null
    }
  ],
  "libraries": [],
  "pending": [],
  "returns": {},
  "timestamp": 1765338651076,
  "chain": 11155111,
  "commit": "f060222"
}