{
  "transactions": [
    {
      "hash": "0x1a873caba62427fa08ea082b28a548b1291774ce9d9b4eaddfbf4756a0caa838",
      "transactionType": "CALL",
      "contractName": "EigenDarkHook",
      "contractAddress": "0x12982838e8cd12e8d8d4dee9a4de6ac8b7164ac0",
      "function": "setAttestor(address,bool)",
      "arguments": [
        "0x266D178014dA4dF023a0104CD282C8c0f67a84Cc",
        "true"
      ],
      "transaction": {
        "from": "0x4b992f2fbf714c0fcbb23bac5130ace48cad00cd",
        "to": "0x12982838e8cd12e8d8d4dee9a4de6ac8b7164ac0",
        "gas": "0x99f5",
        "value": "0x0",
        "input": "0x41724dd0000000000000000000000000266d178014da4df023a0104cd282c8c0f67a84cc0000000000000000000000000000000000000000000000000000000000000001",
        "nonce": "0xc7",
        "chainId": "0xaa36a7"
      },
      "additionalContracts": [],
      "isFixedGasLimit": false
    },
    {
      "hash": "0xd18d9b8485a96d1255ca32ffe3cba6da0a5c4f0d81f0e5a616c61bb322f0a690",
      "transactionType": "CALL",
      "contractName": "EigenDarkVault",
      "contractAddress": "0xcee7afa935b01854d097c1f0ae6a8cb886671b70",
      "function": "setHook(address)",
      "arguments": [
        "0x12982838e8cd12e8d8d4dee9A4DE6Ac8B7164AC0"
      ],
      "transaction": {
        "from": "0x4b992f2fbf714c0fcbb23bac5130ace48cad00cd",
        "to": "0xcee7afa935b01854d097c1f0ae6a8cb886671b70",
        "gas": "0x9db0",
        "value": "0x0",
        "input": "0x3dfd387300000000000000000000000012982838e8cd12e8d8d4dee9a4de6ac8b7164ac0",
        "nonce": "0xc8",
        "chainId": "0xaa36a7"
      },
      "additionalContracts": [],
      "isFixedGasLimit": false
    },
    {
      "hash": "0x42044e9286205975ccd485210ab1b9af295231463766c1c104a509589e5283ad",
      "transactionType": "CALL",
      "contractName": "EigenDarkVault",
      "contractAddress": "0xcee7afa935b01854d097c1f0ae6a8cb886671b70",
      "function": "registerPool((address,address,uint24,int24,address))",
      "arguments": [
        "(0xa8D6Bb0c14c883a3cBfB2ef0a12E0DDDbD3b0B1d, 0xa8D6Bb0c14c883a3cBfB2ef0a12E0DDDbD3b0B1d, 3000, 60, 0x12982838e8cd12e8d8d4dee9A4DE6Ac8B7164AC0)"
      ],
      "transaction": {
        "from": "0x4b992f2fbf714c0fcbb23bac5130ace48cad00cd",
        "to": "0xcee7afa935b01854d097c1f0ae6a8cb886671b70",
        "gas": "0x1a8dc",
        "value": "0x0",
        "input": "0xce07d308000000000000000000000000a8d6bb0c14c883a3cbfb2ef0a12e0dddbd3b0b1d000000000000000000000000a8d6bb0c14c883a3cbfb2ef0a12e0dddbd3b0b1d0000000000000000000000000000000000000000000000000000000000000bb8000000000000000000000000000000000000000000000000000000000000003c00000000000000000000000012982838e8cd12e8d8d4dee9a4de6ac8b7164ac0",
        "nonce": "0xc9",
        "chainId": "0xaa36a7"
      },
      "additionalContracts": [],
      "isFixedGasLimit": false
    },
    {
      "hash": "0x4220fb01e3eff3d750b96c2a27f39b68a1d659fc5dba64565e4abb388dff14af",
      "transactionType": "CALL",
      "contractName": "EigenDarkHook",
      "contractAddress": "0x12982838e8cd12e8d8d4dee9a4de6ac8b7164ac0",
      "function": "configurePool((address,address,uint24,int24,address),(bool,bool,bytes32,uint128,uint128,uint64,uint64,uint128))",
      "arguments": [
        "(0xa8D6Bb0c14c883a3cBfB2ef0a12E0DDDbD3b0B1d, 0xa8D6Bb0c14c883a3cBfB2ef0a12E0DDDbD3b0B1d, 3000, 60, 0x12982838e8cd12e8d8d4dee9A4DE6Ac8B7164AC0)",
        "(true, false, 0x0000000000000000000000000000000000000000000000000000000000000000, 340282366920938463463374607431768211455, 340282366920938463463374607431768211455, 3600, 10000, 0)"
      ],
      "transaction": {
        "from": "0x4b992f2fbf714c0fcbb23bac5130ace48cad00cd",
        "to": "0x12982838e8cd12e8d8d4dee9a4de6ac8b7164ac0",
        "gas": "0x2407a",
        "value": "0x0",
        "input": "0x30284e03000000000000000000000000a8d6bb0c14c883a3cbfb2ef0a12e0dddbd3b0b1d000000000000000000000000a8d6bb0c14c883a3cbfb2ef0a12e0dddbd3b0b1d0000000000000000000000000000000000000000000000000000000000000bb8000000000000000000000000000000000000000000000000000000000000003c00000000000000000000000012982838e8cd12e8d8d4dee9a4de6ac8b7164ac000000000000000000000000000000000000000000000000000000000000000010000000000000000000000000000000000000000000000000000000000000000000000000000000000000000000000000000000000000000000000000000000000000000000000000000000000000000ffffffffffffffffffffffffffffffff00000000000000000000000000000000ffffffffffffffffffffffffffffffff0000000000000000000000000000000000000000000000000000000000000e1000000000000000000000000000000000000000000000000000000000000027100000000000000000000000000000000000000000000000000000000000000000",
        "nonce": "0xca",
        "chainId": "0xaa36a7"
      },
      "additionalContracts": [],
      "isFixedGasLimit": false
    }
  ],
  "receipts": [
    {
      "status": "0x1",
      "cumulativeGasUsed": "0xd442e6",
      "logs": [
        {
          "address": "0x12982838e8cd12e8d8d4dee9a4de6ac8b7164ac0",
          "topics": [
            "0x93b8543bdf0aade4f1b01f7bc7eccaa0d387724a3b85d45b5edb4c03bd8824b5",
            "0x000000000000000000000000266d178014da4df023a0104cd282c8c0f67a84cc"
          ],
          "data": "0x0000000000000000000000000000000000000000000000000000000000000001",
          "blockHash": "0x810c05f205e82ba8408fdcd05be9a0ca8e202d01592524cd70e5f962818077b8",
          "blockNumber": "0x95a1ea",
          "blockTimestamp": "0x6938bba8",
          "transactionHash": "0x1a873caba62427fa08ea082b28a548b1291774ce9d9b4eaddfbf4756a0caa838",
          "transactionIndex": "0x4c",
          "logIndex": "0x9f",
          "removed": false
        }
      ],
      "logsBloom": "0x00000000000000000000000000000000000000000000000000000000000000000000000000000000000000000000000000000000000000000002000000000000000000000000000000000000000000000000000800000000000000000000000000000000000010000000000000000000000000000000000000000000000000000000000000000000000040000000000000000000000000080000000000000000000008000000000000000000000000000000000000000000000000020000000000000000000000004000000000000000000008000000000000000000000000000000000000000000000000000000000000000000000000000000000000000000",
      "type": "0x2",
      "transactionHash": "0x1a873caba62427fa08ea082b28a548b1291774ce9d9b4eaddfbf4756a0caa838",
      "transactionIndex": "0x4c",
      "blockHash": "0x810c05f205e82ba8408fdcd05be9a0ca8e202d01592524cd70e5f962818077b8",
      "blockNumber": "0x95a1ea",
      "gasUsed": "0x6f77",
      "effectiveGasPrice": "0xf4247",
      "from": "0x4b992f2fbf714c0fcbb23bac5130ace48cad00cd",
      "to": "0x12982838e8cd12e8d8d4dee9a4de6ac8b7164ac0",
      "contractAddress": null
    },
    {
      "status": "0x1",
      "cumulativeGasUsed": "0x884270",
      "logs": [
        {
          "address": "0xcee7afa935b01854d097c1f0ae6a8cb886671b70",
          "topics": [
            "0xe816c20840d998c8612f9b624b91687a80510eeb293cb09f7637379f6d73342d",
            "0x00000000000000000000000012982838e8cd12e8d8d4dee9a4de6ac8b7164ac0"
          ],
          "data": "0x",
          "blockHash": "0x7e3bebddb58745b6d13ceb8e33c5d594214ee873fbe0d3eb4f51595b7e7c19a4",
          "blockNumber": "0x95a1ec",
          "blockTimestamp": "0x6938bbc0",
          "transactionHash": "0xd18d9b8485a96d1255ca32ffe3cba6da0a5c4f0d81f0e5a616c61bb322f0a690",
          "transactionIndex": "0x40",
          "logIndex": "0x9c",
          "removed": false
        }
      ],
      "logsBloom": "0x00000000000000000000000020000000000000000000000000000000000000000000000000000000000000000000000000000000000000000000000000000000000000000000000000000000000002000000000000400000000000000000000000200000000000000000000000000000800000000000000000000000000000000000000000000000000000000000000000000000000000000000001000002000000000000000000000000000000000000000000000400000000000000000000400000000000000000000000000000000000000000000000000000000000000000000000000000000000000000000000000000000000000000000000000000000",
      "type": "0x2",
      "transactionHash": "0xd18d9b8485a96d1255ca32ffe3cba6da0a5c4f0d81f0e5a616c61bb322f0a690",
      "transactionIndex": "0x40",
      "blockHash": "0x7e3bebddb58745b6d13ceb8e33c5d594214ee873fbe0d3eb4f51595b7e7c19a4",
      "blockNumber": "0x95a1ec",
      "gasUsed": "0x6bd3",
      "effectiveGasPrice": "0xf4247",
      "from": "0x4b992f2fbf714c0fcbb23bac5130ace48cad00cd",
      "to": "0xcee7afa935b01854d097c1f0ae6a8cb886671b70",
      "contractAddress": null
    },
    {
      "status": "0x1",
      "cumulativeGasUsed": "0x817faa",
      "logs": [
        {
          "address": "0xcee7afa935b01854d097c1f0ae6a8cb886671b70",
          "topics": [
            "0xfafdbdd88ac30f0aa936e576be61816ea751908540523fa81b80c4a406ad7bec",
            "0xde162029c4d86672462a064a189db9eebbf409c94d292e5c86bc6c2c2c0dfe7f"
          ],
          "data": "0x000000000000000000000000a8d6bb0c14c883a3cbfb2ef0a12e0dddbd3b0b1d000000000000000000000000a8d6bb0c14c883a3cbfb2ef0a12e0dddbd3b0b1d",
          "blockHash": "0x7f751b79d05f37a3b133c24b02b603773dddd4b90837ae6cf28a18335b3a55c5",
          "blockNumber": "0x95a1f2",
          "blockTimestamp": "0x6938bc08",
          "transactionHash": "0x42044e9286205975ccd485210ab1b9af295231463766c1c104a509589e5283ad",
          "transactionIndex": "0x2a",
          "logIndex": "0x94",
          "removed": false
        }
      ],
      "logsBloom": "0x00000000000000020000000000000000000000000000000000000000000000000000000000000000000000000000000002000000000000000000000000000000000000000000000000000000000002000000000000400000000000000000000000200000000000000000000000000004000000000000000000000000000000000000000000000000000000000000000000000000000000000000020000000000000000000000000000000000000000000000000000000000000000000000000004000000000000000000000000000000000000000000000000000000000000000000000000000000000000000000000000000000000000000000200000000000",
      "type": "0x2",
      "transactionHash": "0x42044e9286205975ccd485210ab1b9af295231463766c1c104a509589e5283ad",
      "transactionIndex": "0x2a",
      "blockHash": "0x7f751b79d05f37a3b133c24b02b603773dddd4b90837ae6cf28a18335b3a55c5",
      "blockNumber": "0x95a1f2",
      "gasUsed": "0x12281",
      "effectiveGasPrice": "0xf4247",
      "from": "0x4b992f2fbf714c0fcbb23bac5130ace48cad00cd",
      "to": "0xcee7afa935b01854d097c1f0ae6a8cb886671b70",
      "contractAddress": null
    },
    {
      "status": "0x1",
      "cumulativeGasUsed": "0x62fe78",
      "logs": [
        {
          "address": "0x12982838e8cd12e8d8d4dee9a4de6ac8b7164ac0",
          "topics": [
            "0x28706ea9238953dede7990a9447007def16e9ebac7395fcb7c07944e972be1c8",
            "0xde162029c4d86672462a064a189db9eebbf409c94d292e5c86bc6c2c2c0dfe7f"
          ],
          "data": "0x00000000000000000000000000000000000000000000000000000000000000010000000000000000000000000000000000000000000000000000000000000000000000000000000000000000000000000000000000000000000000000000000000000000000000000000000000000000ffffffffffffffffffffffffffffffff00000000000000000000000000000000ffffffffffffffffffffffffffffffff0000000000000000000000000000000000000000000000000000000000000e1000000000000000000000000000000000000000000000000000000000000027100000000000000000000000000000000000000000000000000000000000000000",
          "blockHash": "0xf92186b710025fff91de35efeef70fa00d69b5729fcf3e49f1f25f9180a10109",
          "blockNumber": "0x95a1f7",
          "blockTimestamp": "0x6938bc44",
          "transactionHash": "0x4220fb01e3eff3d750b96c2a27f39b68a1d659fc5dba64565e4abb388dff14af",
          "transactionIndex": "0x32",
          "logIndex": "0x4b",
          "removed": false
        }
      ],
      "logsBloom": "0x00000000000000020000000000000000000000000000000000000000000000000000000000000000000000000000000000000000000000000002000000000000000040000000000000000000000000000000000000000000000000000000000000000000000010000000000000000000000000000000000100000000000000000000080000000000000040000000000000000000000000000000020000000000000000000000000000000000000000000000000000000000000000000000000000000000000000000000000000000000000000000000000000000000000000000000000000000000000000000000000000000000000000000000200000000000",
      "type": "0x2",
      "transactionHash": "0x4220fb01e3eff3d750b96c2a27f39b68a1d659fc5dba64565e4abb388dff14af",
      "transactionIndex": "0x32",
      "blockHash": "0xf92186b710025fff91de35efeef70fa00d69b5729fcf3e49f1f25f9180a10109",
      "blockNumber": "0x95a1f7",
      "gasUsed": "0x1a15d",
      "effectiveGasPrice": "0xf4247",
      "from": "0x4b992f2fbf714c0fcbb23bac5130ace48cad00cd",
      "to": "0x12982838e8cd12e8d8d4dee9a4de6ac8b7164ac0",
      "contractAddress": null
    }
  ],
  "libraries": [],
  "pending": [],
  "returns": {},
  "timestamp": 1765325910086,
  "chain": 11155111,
  "commit": "f060222"
}